{
  "_format": "hh-sol-artifact-1",
  "contractName": "SimpleToken",
  "sourceName": "contracts/SimpleToken.sol",
  "abi": [
    {
      "inputs": [
        {
          "internalType": "string",
          "name": "name",
          "type": "string"
        },
        {
          "internalType": "string",
          "name": "symbol",
          "type": "string"
        },
        {
          "internalType": "uint256",
          "name": "initialSupply",
          "type": "uint256"
        }
      ],
      "stateMutability": "nonpayable",
      "type": "constructor"
    },
    {
      "inputs": [
        {
          "internalType": "address",
          "name": "spender",
          "type": "address"
        },
        {
          "internalType": "uint256",
          "name": "allowance",
          "type": "uint256"
        },
        {
          "internalType": "uint256",
          "name": "needed",
          "type": "uint256"
        }
      ],
      "name": "ERC20InsufficientAllowance",
      "type": "error"
    },
    {
      "inputs": [
        {
          "internalType": "address",
          "name": "sender",
          "type": "address"
        },
        {
          "internalType": "uint256",
          "name": "balance",
          "type": "uint256"
        },
        {
          "internalType": "uint256",
          "name": "needed",
          "type": "uint256"
        }
      ],
      "name": "ERC20InsufficientBalance",
      "type": "error"
    },
    {
      "inputs": [
        {
          "internalType": "address",
          "name": "approver",
          "type": "address"
        }
      ],
      "name": "ERC20InvalidApprover",
      "type": "error"
    },
    {
      "inputs": [
        {
          "internalType": "address",
          "name": "receiver",
          "type": "address"
        }
      ],
      "name": "ERC20InvalidReceiver",
      "type": "error"
    },
    {
      "inputs": [
        {
          "internalType": "address",
          "name": "sender",
          "type": "address"
        }
      ],
      "name": "ERC20InvalidSender",
      "type": "error"
    },
    {
      "inputs": [
        {
          "internalType": "address",
          "name": "spender",
          "type": "address"
        }
      ],
      "name": "ERC20InvalidSpender",
      "type": "error"
    },
    {
      "inputs": [
        {
          "internalType": "address",
          "name": "owner",
          "type": "address"
        }
      ],
      "name": "OwnableInvalidOwner",
      "type": "error"
    },
    {
      "inputs": [
        {
          "internalType": "address",
          "name": "account",
          "type": "address"
        }
      ],
      "name": "OwnableUnauthorizedAccount",
      "type": "error"
    },
    {
      "anonymous": false,
      "inputs": [
        {
          "indexed": true,
          "internalType": "address",
          "name": "owner",
          "type": "address"
        },
        {
          "indexed": true,
          "internalType": "address",
          "name": "spender",
          "type": "address"
        },
        {
          "indexed": false,
          "internalType": "uint256",
          "name": "value",
          "type": "uint256"
        }
      ],
      "name": "Approval",
      "type": "event"
    },
    {
      "anonymous": false,
      "inputs": [
        {
          "indexed": true,
          "internalType": "address",
          "name": "user",
          "type": "address"
        },
        {
          "indexed": true,
          "internalType": "uint256",
          "name": "tokenId",
          "type": "uint256"
        },
        {
          "indexed": false,
          "internalType": "string",
          "name": "data",
          "type": "string"
        },
        {
          "indexed": false,
          "internalType": "uint256",
          "name": "timestamp",
          "type": "uint256"
        }
      ],
      "name": "DataUpdated",
      "type": "event"
    },
    {
      "anonymous": false,
      "inputs": [
        {
          "indexed": true,
          "internalType": "address",
          "name": "previousOwner",
          "type": "address"
        },
        {
          "indexed": true,
          "internalType": "address",
          "name": "newOwner",
          "type": "address"
        }
      ],
      "name": "OwnershipTransferred",
      "type": "event"
    },
    {
      "anonymous": false,
      "inputs": [
        {
          "indexed": true,
          "internalType": "address",
          "name": "from",
          "type": "address"
        },
        {
          "indexed": true,
          "internalType": "address",
          "name": "to",
          "type": "address"
        },
        {
          "indexed": false,
          "internalType": "uint256",
          "name": "value",
          "type": "uint256"
        }
      ],
      "name": "Transfer",
      "type": "event"
    },
    {
      "inputs": [
        {
          "internalType": "address",
          "name": "owner",
          "type": "address"
        },
        {
          "internalType": "address",
          "name": "spender",
          "type": "address"
        }
      ],
      "name": "allowance",
      "outputs": [
        {
          "internalType": "uint256",
          "name": "",
          "type": "uint256"
        }
      ],
      "stateMutability": "view",
      "type": "function"
    },
    {
      "inputs": [
        {
          "internalType": "address",
          "name": "spender",
          "type": "address"
        },
        {
          "internalType": "uint256",
          "name": "value",
          "type": "uint256"
        }
      ],
      "name": "approve",
      "outputs": [
        {
          "internalType": "bool",
          "name": "",
          "type": "bool"
        }
      ],
      "stateMutability": "nonpayable",
      "type": "function"
    },
    {
      "inputs": [
        {
          "internalType": "address",
          "name": "account",
          "type": "address"
        }
      ],
      "name": "balanceOf",
      "outputs": [
        {
          "internalType": "uint256",
          "name": "",
          "type": "uint256"
        }
      ],
      "stateMutability": "view",
      "type": "function"
    },
    {
      "inputs": [],
      "name": "decimals",
      "outputs": [
        {
          "internalType": "uint8",
          "name": "",
          "type": "uint8"
        }
      ],
      "stateMutability": "view",
      "type": "function"
    },
    {
      "inputs": [
        {
          "internalType": "address",
          "name": "user",
          "type": "address"
        },
        {
          "internalType": "uint256",
          "name": "tokenId",
          "type": "uint256"
        }
      ],
      "name": "getUserData",
      "outputs": [
        {
          "internalType": "string",
          "name": "data",
          "type": "string"
        },
        {
          "internalType": "uint256",
          "name": "timestamp",
          "type": "uint256"
        },
        {
          "internalType": "uint256",
          "name": "updateCount",
          "type": "uint256"
        }
      ],
      "stateMutability": "view",
      "type": "function"
    },
    {
      "inputs": [
        {
          "internalType": "address",
          "name": "to",
          "type": "address"
        },
        {
          "internalType": "uint256",
          "name": "amount",
          "type": "uint256"
        }
      ],
      "name": "mint",
      "outputs": [],
      "stateMutability": "nonpayable",
      "type": "function"
    },
    {
      "inputs": [],
      "name": "name",
      "outputs": [
        {
          "internalType": "string",
          "name": "",
          "type": "string"
        }
      ],
      "stateMutability": "view",
      "type": "function"
    },
    {
      "inputs": [],
      "name": "owner",
      "outputs": [
        {
          "internalType": "address",
          "name": "",
          "type": "address"
        }
      ],
      "stateMutability": "view",
      "type": "function"
    },
    {
      "inputs": [],
      "name": "renounceOwnership",
      "outputs": [],
      "stateMutability": "nonpayable",
      "type": "function"
    },
    {
      "inputs": [],
      "name": "symbol",
      "outputs": [
        {
          "internalType": "string",
          "name": "",
          "type": "string"
        }
      ],
      "stateMutability": "view",
      "type": "function"
    },
    {
      "inputs": [],
      "name": "totalSupply",
      "outputs": [
        {
          "internalType": "uint256",
          "name": "",
          "type": "uint256"
        }
      ],
      "stateMutability": "view",
      "type": "function"
    },
    {
      "inputs": [
        {
          "internalType": "address",
          "name": "to",
          "type": "address"
        },
        {
          "internalType": "uint256",
          "name": "value",
          "type": "uint256"
        }
      ],
      "name": "transfer",
      "outputs": [
        {
          "internalType": "bool",
          "name": "",
          "type": "bool"
        }
      ],
      "stateMutability": "nonpayable",
      "type": "function"
    },
    {
      "inputs": [
        {
          "internalType": "address",
          "name": "from",
          "type": "address"
        },
        {
          "internalType": "address",
          "name": "to",
          "type": "address"
        },
        {
          "internalType": "uint256",
          "name": "value",
          "type": "uint256"
        }
      ],
      "name": "transferFrom",
      "outputs": [
        {
          "internalType": "bool",
          "name": "",
          "type": "bool"
        }
      ],
      "stateMutability": "nonpayable",
      "type": "function"
    },
    {
      "inputs": [
        {
          "internalType": "address",
          "name": "newOwner",
          "type": "address"
        }
      ],
      "name": "transferOwnership",
      "outputs": [],
      "stateMutability": "nonpayable",
      "type": "function"
    },
    {
      "inputs": [
        {
          "internalType": "uint256",
          "name": "tokenId",
          "type": "uint256"
        },
        {
          "internalType": "string",
          "name": "data",
          "type": "string"
        }
      ],
      "name": "updateData",
      "outputs": [],
      "stateMutability": "nonpayable",
      "type": "function"
    },
    {
      "inputs": [
        {
          "internalType": "address",
          "name": "",
          "type": "address"
        },
        {
          "internalType": "uint256",
          "name": "",
          "type": "uint256"
        }
      ],
      "name": "userData",
      "outputs": [
        {
          "internalType": "string",
          "name": "data",
          "type": "string"
        },
        {
          "internalType": "uint256",
          "name": "timestamp",
          "type": "uint256"
        },
        {
          "internalType": "uint256",
          "name": "updateCount",
          "type": "uint256"
        }
      ],
      "stateMutability": "view",
      "type": "function"
    }
  ],
  "bytecode": "0x60806040523480156200001157600080fd5b506040516200146438038062001464833981016040819052620000349162000349565b33838360036200004583826200044b565b5060046200005482826200044b565b5050506001600160a01b0381166200008757604051631e4fbdf760e01b8152600060048201526024015b60405180910390fd5b6200009281620000c1565b50620000b833620000a66012600a6200062c565b620000b2908462000644565b62000113565b50505062000674565b600580546001600160a01b038381166001600160a01b0319831681179093556040519116919082907f8be0079c531659141344cd1fd0a4f28419497f9722a3daafe3b4186f6b6457e090600090a35050565b6001600160a01b0382166200013f5760405163ec442f0560e01b8152600060048201526024016200007e565b6200014d6000838362000151565b5050565b6001600160a01b038316620001805780600260008282546200017491906200065e565b90915550620001f49050565b6001600160a01b03831660009081526020819052604090205481811015620001d55760405163391434e360e21b81526001600160a01b038516600482015260248101829052604481018390526064016200007e565b6001600160a01b03841660009081526020819052604090209082900390555b6001600160a01b038216620002125760028054829003905562000231565b6001600160a01b03821660009081526020819052604090208054820190555b816001600160a01b0316836001600160a01b03167fddf252ad1be2c89b69c2b068fc378daa952ba7f163c4a11628f55a4df523b3ef836040516200027791815260200190565b60405180910390a3505050565b634e487b7160e01b600052604160045260246000fd5b600082601f830112620002ac57600080fd5b81516001600160401b0380821115620002c957620002c962000284565b604051601f8301601f19908116603f01168101908282118183101715620002f457620002f462000284565b816040528381526020925086838588010111156200031157600080fd5b600091505b8382101562000335578582018301518183018401529082019062000316565b600093810190920192909252949350505050565b6000806000606084860312156200035f57600080fd5b83516001600160401b03808211156200037757600080fd5b62000385878388016200029a565b945060208601519150808211156200039c57600080fd5b50620003ab868287016200029a565b925050604084015190509250925092565b600181811c90821680620003d157607f821691505b602082108103620003f257634e487b7160e01b600052602260045260246000fd5b50919050565b601f8211156200044657600081815260208120601f850160051c81016020861015620004215750805b601f850160051c820191505b8181101562000442578281556001016200042d565b5050505b505050565b81516001600160401b0381111562000467576200046762000284565b6200047f81620004788454620003bc565b84620003f8565b602080601f831160018114620004b757600084156200049e5750858301515b600019600386901b1c1916600185901b17855562000442565b600085815260208120601f198616915b82811015620004e857888601518255948401946001909101908401620004c7565b5085821015620005075787850151600019600388901b60f8161c191681555b5050505050600190811b01905550565b634e487b7160e01b600052601160045260246000fd5b600181815b808511156200056e57816000190482111562000552576200055262000517565b808516156200056057918102915b93841c939080029062000532565b509250929050565b600082620005875750600162000626565b81620005965750600062000626565b8160018114620005af5760028114620005ba57620005da565b600191505062000626565b60ff841115620005ce57620005ce62000517565b50506001821b62000626565b5060208310610133831016604e8410600b8410161715620005ff575081810a62000626565b6200060b83836200052d565b806000190482111562000622576200062262000517565b0290505b92915050565b60006200063d60ff84168362000576565b9392505050565b808202811582820484141762000626576200062662000517565b8082018082111562000626576200062662000517565b610de080620006846000396000f3fe608060405234801561001057600080fd5b50600436106101005760003560e01c806370a082311161009757806395d89b411161006657806395d89b4114610223578063a9059cbb1461022b578063dd62ed3e1461023e578063f2fde38b1461027757600080fd5b806370a08231146101c4578063715018a6146101ed57806389a8e2a7146101f55780638da5cb5b1461020857600080fd5b8063313ce567116100d3578063313ce5671461016b5780633c05eca11461017a57806340c10f191461019c5780634cd01af1146101b157600080fd5b806306fdde0314610105578063095ea7b31461012357806318160ddd1461014657806323b872dd14610158575b600080fd5b61010d61028a565b60405161011a9190610a3f565b60405180910390f35b610136610131366004610a75565b61031c565b604051901515815260200161011a565b6002545b60405190815260200161011a565b610136610166366004610a9f565b610336565b6040516012815260200161011a565b61018d610188366004610a75565b61035a565b60405161011a93929190610adb565b6101af6101aa366004610a75565b61040f565b005b61018d6101bf366004610a75565b610425565b61014a6101d2366004610b00565b6001600160a01b031660009081526020819052604090205490565b6101af61051f565b6101af610203366004610b31565b610533565b6005546040516001600160a01b03909116815260200161011a565b61010d6105f5565b610136610239366004610a75565b610604565b61014a61024c366004610bec565b6001600160a01b03918216600090815260016020908152604080832093909416825291909152205490565b6101af610285366004610b00565b610612565b60606003805461029990610c1f565b80601f01602080910402602001604051908101604052809291908181526020018280546102c590610c1f565b80156103125780601f106102e757610100808354040283529160200191610312565b820191906000526020600020905b8154815290600101906020018083116102f557829003601f168201915b5050505050905090565b60003361032a818585610655565b60019150505b92915050565b600033610344858285610667565b61034f8585856106e6565b506001949350505050565b600660209081526000928352604080842090915290825290208054819061038090610c1f565b80601f01602080910402602001604051908101604052809291908181526020018280546103ac90610c1f565b80156103f95780601f106103ce576101008083540402835291602001916103f9565b820191906000526020600020905b8154815290600101906020018083116103dc57829003601f168201915b5050505050908060010154908060020154905083565b610417610745565b6104218282610772565b5050565b6001600160a01b038216600090815260066020908152604080832084845290915280822081516060818101909352815492939283928392918290829061046a90610c1f565b80601f016020809104026020016040519081016040528092919081815260200182805461049690610c1f565b80156104e35780601f106104b8576101008083540402835291602001916104e3565b820191906000526020600020905b8154815290600101906020018083116104c657829003601f168201915b50505050508152602001600182015481526020016002820154815250509050806000015181602001518260400151935093509350509250925092565b610527610745565b61053160006107a8565b565b604080516060810182528281524260208083019190915233600090815260068252838120868252909152829020600201549091820190610574906001610c59565b905233600090815260066020908152604080832086845290915290208151819061059e9082610cc8565b506020820151600182015560409182015160029091015551829033907f37ad3a4f0894aef4e45e647bed791e28df73acb0af724540982f71a0e71dcc18906105e99085904290610d88565b60405180910390a35050565b60606004805461029990610c1f565b60003361032a8185856106e6565b61061a610745565b6001600160a01b03811661064957604051631e4fbdf760e01b8152600060048201526024015b60405180910390fd5b610652816107a8565b50565b61066283838360016107fa565b505050565b6001600160a01b038381166000908152600160209081526040808320938616835292905220546000198110156106e057818110156106d157604051637dc7a0d960e11b81526001600160a01b03841660048201526024810182905260448101839052606401610640565b6106e0848484840360006107fa565b50505050565b6001600160a01b03831661071057604051634b637e8f60e11b815260006004820152602401610640565b6001600160a01b03821661073a5760405163ec442f0560e01b815260006004820152602401610640565b6106628383836108cf565b6005546001600160a01b031633146105315760405163118cdaa760e01b8152336004820152602401610640565b6001600160a01b03821661079c5760405163ec442f0560e01b815260006004820152602401610640565b610421600083836108cf565b600580546001600160a01b038381166001600160a01b0319831681179093556040519116919082907f8be0079c531659141344cd1fd0a4f28419497f9722a3daafe3b4186f6b6457e090600090a35050565b6001600160a01b0384166108245760405163e602df0560e01b815260006004820152602401610640565b6001600160a01b03831661084e57604051634a1406b160e11b815260006004820152602401610640565b6001600160a01b03808516600090815260016020908152604080832093871683529290522082905580156106e057826001600160a01b0316846001600160a01b03167f8c5be1e5ebec7d5bd14f71427d1e84f3dd0314c0f7b2291e5b200ac8c7c3b925846040516108c191815260200190565b60405180910390a350505050565b6001600160a01b0383166108fa5780600260008282546108ef9190610c59565b9091555061096c9050565b6001600160a01b0383166000908152602081905260409020548181101561094d5760405163391434e360e21b81526001600160a01b03851660048201526024810182905260448101839052606401610640565b6001600160a01b03841660009081526020819052604090209082900390555b6001600160a01b038216610988576002805482900390556109a7565b6001600160a01b03821660009081526020819052604090208054820190555b816001600160a01b0316836001600160a01b03167fddf252ad1be2c89b69c2b068fc378daa952ba7f163c4a11628f55a4df523b3ef836040516109ec91815260200190565b60405180910390a3505050565b6000815180845260005b81811015610a1f57602081850181015186830182015201610a03565b506000602082860101526020601f19601f83011685010191505092915050565b602081526000610a5260208301846109f9565b9392505050565b80356001600160a01b0381168114610a7057600080fd5b919050565b60008060408385031215610a8857600080fd5b610a9183610a59565b946020939093013593505050565b600080600060608486031215610ab457600080fd5b610abd84610a59565b9250610acb60208501610a59565b9150604084013590509250925092565b606081526000610aee60608301866109f9565b60208301949094525060400152919050565b600060208284031215610b1257600080fd5b610a5282610a59565b634e487b7160e01b600052604160045260246000fd5b60008060408385031215610b4457600080fd5b82359150602083013567ffffffffffffffff80821115610b6357600080fd5b818501915085601f830112610b7757600080fd5b813581811115610b8957610b89610b1b565b604051601f8201601f19908116603f01168101908382118183101715610bb157610bb1610b1b565b81604052828152886020848701011115610bca57600080fd5b8260208601602083013760006020848301015280955050505050509250929050565b60008060408385031215610bff57600080fd5b610c0883610a59565b9150610c1660208401610a59565b90509250929050565b600181811c90821680610c3357607f821691505b602082108103610c5357634e487b7160e01b600052602260045260246000fd5b50919050565b8082018082111561033057634e487b7160e01b600052601160045260246000fd5b601f82111561066257600081815260208120601f850160051c81016020861015610ca15750805b601f850160051c820191505b81811015610cc057828155600101610cad565b505050505050565b815167ffffffffffffffff811115610ce257610ce2610b1b565b610cf681610cf08454610c1f565b84610c7a565b602080601f831160018114610d2b5760008415610d135750858301515b600019600386901b1c1916600185901b178555610cc0565b600085815260208120601f198616915b82811015610d5a57888601518255948401946001909101908401610d3b565b5085821015610d785787850151600019600388901b60f8161c191681555b5050505050600190811b01905550565b604081526000610d9b60408301856109f9565b9050826020830152939250505056fea26469706673582212200e1063c4e6c0cef045d039a9b01a5c2579b3e9398eae7d0d52ac9783deb8a57a64736f6c63430008140033",
  "linkReferences": {},
  "deployedLinkReferences": {}
}